{
  "_format": "hh-sol-artifact-1",
  "contractName": "BallotDAO",
  "sourceName": "contracts/BallotDAO.sol",
  "abi": [
    {
      "inputs": [
        {
          "internalType": "address",
          "name": "_ballotToken",
          "type": "address"
        },
        {
          "internalType": "address",
          "name": "initialOwner",
          "type": "address"
        }
      ],
      "stateMutability": "nonpayable",
      "type": "constructor"
    },
    {
      "inputs": [
        {
          "internalType": "address",
          "name": "owner",
          "type": "address"
        }
      ],
      "name": "OwnableInvalidOwner",
      "type": "error"
    },
    {
      "inputs": [
        {
          "internalType": "address",
          "name": "account",
          "type": "address"
        }
      ],
      "name": "OwnableUnauthorizedAccount",
      "type": "error"
    },
    {
      "inputs": [],
      "name": "ReentrancyGuardReentrantCall",
      "type": "error"
    },
    {
      "anonymous": false,
      "inputs": [
        {
          "indexed": true,
          "internalType": "address",
          "name": "previousOwner",
          "type": "address"
        },
        {
          "indexed": true,
          "internalType": "address",
          "name": "newOwner",
          "type": "address"
        }
      ],
      "name": "OwnershipTransferred",
      "type": "event"
    },
    {
      "anonymous": false,
      "inputs": [
        {
          "indexed": true,
          "internalType": "uint256",
          "name": "proposalId",
          "type": "uint256"
        }
      ],
      "name": "ProposalCanceled",
      "type": "event"
    },
    {
      "anonymous": false,
      "inputs": [
        {
          "indexed": true,
          "internalType": "uint256",
          "name": "proposalId",
          "type": "uint256"
        },
        {
          "indexed": true,
          "internalType": "address",
          "name": "proposer",
          "type": "address"
        },
        {
          "indexed": false,
          "internalType": "string",
          "name": "title",
          "type": "string"
        },
        {
          "indexed": false,
          "internalType": "string",
          "name": "description",
          "type": "string"
        },
        {
          "indexed": false,
          "internalType": "uint256",
          "name": "startTime",
          "type": "uint256"
        },
        {
          "indexed": false,
          "internalType": "uint256",
          "name": "endTime",
          "type": "uint256"
        }
      ],
      "name": "ProposalCreated",
      "type": "event"
    },
    {
      "anonymous": false,
      "inputs": [
        {
          "indexed": true,
          "internalType": "uint256",
          "name": "proposalId",
          "type": "uint256"
        }
      ],
      "name": "ProposalExecuted",
      "type": "event"
    },
    {
      "anonymous": false,
      "inputs": [
        {
          "indexed": true,
          "internalType": "address",
          "name": "voter",
          "type": "address"
        },
        {
          "indexed": true,
          "internalType": "uint256",
          "name": "proposalId",
          "type": "uint256"
        },
        {
          "indexed": false,
          "internalType": "bool",
          "name": "support",
          "type": "bool"
        },
        {
          "indexed": false,
          "internalType": "uint256",
          "name": "votes",
          "type": "uint256"
        }
      ],
      "name": "VoteCast",
      "type": "event"
    },
    {
      "inputs": [],
      "name": "ballotToken",
      "outputs": [
        {
          "internalType": "contract BallotToken",
          "name": "",
          "type": "address"
        }
      ],
      "stateMutability": "view",
      "type": "function"
    },
    {
      "inputs": [
        {
          "internalType": "uint256",
          "name": "proposalId",
          "type": "uint256"
        }
      ],
      "name": "cancel",
      "outputs": [],
      "stateMutability": "nonpayable",
      "type": "function"
    },
    {
      "inputs": [
        {
          "internalType": "uint256",
          "name": "proposalId",
          "type": "uint256"
        },
        {
          "internalType": "bool",
          "name": "support",
          "type": "bool"
        }
      ],
      "name": "castVote",
      "outputs": [],
      "stateMutability": "nonpayable",
      "type": "function"
    },
    {
      "inputs": [
        {
          "internalType": "uint256",
          "name": "proposalId",
          "type": "uint256"
        }
      ],
      "name": "execute",
      "outputs": [],
      "stateMutability": "nonpayable",
      "type": "function"
    },
    {
      "inputs": [
        {
          "internalType": "uint256",
          "name": "proposalId",
          "type": "uint256"
        }
      ],
      "name": "getProposal",
      "outputs": [
        {
          "internalType": "address",
          "name": "proposer",
          "type": "address"
        },
        {
          "internalType": "string",
          "name": "title",
          "type": "string"
        },
        {
          "internalType": "string",
          "name": "description",
          "type": "string"
        },
        {
          "internalType": "uint256",
          "name": "forVotes",
          "type": "uint256"
        },
        {
          "internalType": "uint256",
          "name": "againstVotes",
          "type": "uint256"
        },
        {
          "internalType": "uint256",
          "name": "startTime",
          "type": "uint256"
        },
        {
          "internalType": "uint256",
          "name": "endTime",
          "type": "uint256"
        },
        {
          "internalType": "bool",
          "name": "executed",
          "type": "bool"
        },
        {
          "internalType": "bool",
          "name": "canceled",
          "type": "bool"
        }
      ],
      "stateMutability": "view",
      "type": "function"
    },
    {
      "inputs": [
        {
          "internalType": "uint256",
          "name": "proposalId",
          "type": "uint256"
        },
        {
          "internalType": "address",
          "name": "voter",
          "type": "address"
        }
      ],
      "name": "getReceipt",
      "outputs": [
        {
          "internalType": "bool",
          "name": "hasVoted",
          "type": "bool"
        },
        {
          "internalType": "bool",
          "name": "support",
          "type": "bool"
        },
        {
          "internalType": "uint256",
          "name": "votes",
          "type": "uint256"
        }
      ],
      "stateMutability": "view",
      "type": "function"
    },
    {
      "inputs": [
        {
          "internalType": "uint256",
          "name": "proposalId",
          "type": "uint256"
        },
        {
          "internalType": "address",
          "name": "voter",
          "type": "address"
        }
      ],
      "name": "hasVoted",
      "outputs": [
        {
          "internalType": "bool",
          "name": "",
          "type": "bool"
        }
      ],
      "stateMutability": "view",
      "type": "function"
    },
    {
      "inputs": [
        {
          "internalType": "address",
          "name": "",
          "type": "address"
        }
      ],
      "name": "latestProposalIds",
      "outputs": [
        {
          "internalType": "uint256",
          "name": "",
          "type": "uint256"
        }
      ],
      "stateMutability": "view",
      "type": "function"
    },
    {
      "inputs": [],
      "name": "owner",
      "outputs": [
        {
          "internalType": "address",
          "name": "",
          "type": "address"
        }
      ],
      "stateMutability": "view",
      "type": "function"
    },
    {
      "inputs": [],
      "name": "proposalCount",
      "outputs": [
        {
          "internalType": "uint256",
          "name": "",
          "type": "uint256"
        }
      ],
      "stateMutability": "view",
      "type": "function"
    },
    {
      "inputs": [],
      "name": "proposalThreshold",
      "outputs": [
        {
          "internalType": "uint256",
          "name": "",
          "type": "uint256"
        }
      ],
      "stateMutability": "view",
      "type": "function"
    },
    {
      "inputs": [
        {
          "internalType": "uint256",
          "name": "",
          "type": "uint256"
        }
      ],
      "name": "proposals",
      "outputs": [
        {
          "internalType": "uint256",
          "name": "id",
          "type": "uint256"
        },
        {
          "internalType": "address",
          "name": "proposer",
          "type": "address"
        },
        {
          "internalType": "string",
          "name": "title",
          "type": "string"
        },
        {
          "internalType": "string",
          "name": "description",
          "type": "string"
        },
        {
          "internalType": "uint256",
          "name": "forVotes",
          "type": "uint256"
        },
        {
          "internalType": "uint256",
          "name": "againstVotes",
          "type": "uint256"
        },
        {
          "internalType": "uint256",
          "name": "startTime",
          "type": "uint256"
        },
        {
          "internalType": "uint256",
          "name": "endTime",
          "type": "uint256"
        },
        {
          "internalType": "bool",
          "name": "executed",
          "type": "bool"
        },
        {
          "internalType": "bool",
          "name": "canceled",
          "type": "bool"
        }
      ],
      "stateMutability": "view",
      "type": "function"
    },
    {
      "inputs": [
        {
          "internalType": "string",
          "name": "title",
          "type": "string"
        },
        {
          "internalType": "string",
          "name": "description",
          "type": "string"
        }
      ],
      "name": "propose",
      "outputs": [
        {
          "internalType": "uint256",
          "name": "",
          "type": "uint256"
        }
      ],
      "stateMutability": "nonpayable",
      "type": "function"
    },
    {
      "inputs": [],
      "name": "quorumVotes",
      "outputs": [
        {
          "internalType": "uint256",
          "name": "",
          "type": "uint256"
        }
      ],
      "stateMutability": "view",
      "type": "function"
    },
    {
      "inputs": [],
      "name": "renounceOwnership",
      "outputs": [],
      "stateMutability": "nonpayable",
      "type": "function"
    },
    {
      "inputs": [
        {
          "internalType": "uint256",
          "name": "proposalId",
          "type": "uint256"
        }
      ],
      "name": "state",
      "outputs": [
        {
          "internalType": "enum BallotDAO.ProposalState",
          "name": "",
          "type": "uint8"
        }
      ],
      "stateMutability": "view",
      "type": "function"
    },
    {
      "inputs": [
        {
          "internalType": "address",
          "name": "newOwner",
          "type": "address"
        }
      ],
      "name": "transferOwnership",
      "outputs": [],
      "stateMutability": "nonpayable",
      "type": "function"
    },
    {
      "inputs": [
        {
          "internalType": "uint256",
          "name": "_votingDelay",
          "type": "uint256"
        },
        {
          "internalType": "uint256",
          "name": "_votingPeriod",
          "type": "uint256"
        },
        {
          "internalType": "uint256",
          "name": "_proposalThreshold",
          "type": "uint256"
        },
        {
          "internalType": "uint256",
          "name": "_quorumVotes",
          "type": "uint256"
        }
      ],
      "name": "updateGovernanceParameters",
      "outputs": [],
      "stateMutability": "nonpayable",
      "type": "function"
    },
    {
      "inputs": [],
      "name": "votingDelay",
      "outputs": [
        {
          "internalType": "uint256",
          "name": "",
          "type": "uint256"
        }
      ],
      "stateMutability": "view",
      "type": "function"
    },
    {
      "inputs": [],
      "name": "votingPeriod",
      "outputs": [
        {
          "internalType": "uint256",
          "name": "",
          "type": "uint256"
        }
      ],
      "stateMutability": "view",
      "type": "function"
    }
  ],
  "bytecode": "0x6080604052600160045561b2fa600555683635c9adc5dea0000060065569021e19e0c9bab24000006007553480156200003757600080fd5b50604051620017ff380380620017ff8339810160408190526200005a916200012e565b806001600160a01b0381166200008a57604051631e4fbdf760e01b81526000600482015260240160405180910390fd5b6200009581620000c1565b505060018055600280546001600160a01b0319166001600160a01b039290921691909117905562000166565b600080546001600160a01b038381166001600160a01b0319831681178455604051919092169283917f8be0079c531659141344cd1fd0a4f28419497f9722a3daafe3b4186f6b6457e09190a35050565b80516001600160a01b03811681146200012957600080fd5b919050565b600080604083850312156200014257600080fd5b6200014d8362000111565b91506200015d6020840162000111565b90509250929050565b61168980620001766000396000f3fe608060405234801561001057600080fd5b506004361061012c5760003560e01c806343859632116100ad578063c7f758a811610071578063c7f758a8146102b4578063da35c664146102dc578063e23a9a52146102e5578063f2fde38b1461036b578063fe0d94c11461037e57600080fd5b8063438596321461021a578063715018a6146102675780637bec8a6f1461026f5780638da5cb5b1461029a578063b58131b0146102ab57600080fd5b806324bc1a64116100f457806324bc1a64146101c257806332427be4146101cb5780633932abb1146101de5780633e4f49e6146101e757806340e58ee51461020757600080fd5b8063013cf08b1461013157806302a251a31461016357806315373e3d1461017a57806317977c611461018f5780631c4afc57146101af575b600080fd5b61014461013f3660046110de565b610391565b60405161015a9a9998979695949392919061113d565b60405180910390f35b61016c60055481565b60405190815260200161015a565b61018d6101883660046111b7565b6104ff565b005b61016c61019d366004611208565b60096020526000908152604090205481565b61016c6101bd3660046112cd565b6107c3565b61016c60075481565b61018d6101d9366004611331565b610b12565b61016c60045481565b6101fa6101f53660046110de565b610b2e565b60405161015a9190611379565b61018d6102153660046110de565b610c14565b6102576102283660046113a1565b60008281526008602090815260408083206001600160a01b038516845260090190915290205460ff1692915050565b604051901515815260200161015a565b61018d610d3d565b600254610282906001600160a01b031681565b6040516001600160a01b03909116815260200161015a565b6000546001600160a01b0316610282565b61016c60065481565b6102c76102c23660046110de565b610d51565b60405161015a999897969594939291906113cd565b61016c60035481565b61034e6102f33660046113a1565b60009182526008602090815260408084206001600160a01b0393909316845260099092018152918190208151606081018352815460ff8082161515808452610100909204161515948201859052600190920154920182905292565b60408051931515845291151560208401529082015260600161015a565b61018d610379366004611208565b610eef565b61018d61038c3660046110de565b610f2d565b60086020526000908152604090208054600182015460028301805492936001600160a01b03909216926103c39061143f565b80601f01602080910402602001604051908101604052809291908181526020018280546103ef9061143f565b801561043c5780601f106104115761010080835404028352916020019161043c565b820191906000526020600020905b81548152906001019060200180831161041f57829003601f168201915b5050505050908060030180546104519061143f565b80601f016020809104026020016040519081016040528092919081815260200182805461047d9061143f565b80156104ca5780601f1061049f576101008083540402835291602001916104ca565b820191906000526020600020905b8154815290600101906020018083116104ad57829003601f168201915b505050600484015460058501546006860154600787015460089097015495969295919450925060ff808216916101009004168a565b6002546040516370a0823160e01b81523360048201526000916001600160a01b0316906370a0823190602401602060405180830381865afa158015610548573d6000803e3d6000fd5b505050506040513d601f19601f8201168201806040525081019061056c9190611479565b116105925760405162461bcd60e51b815260040161058990611492565b60405180910390fd5b600161059d83610b2e565b60058111156105ae576105ae611363565b146105f15760405162461bcd60e51b815260206004820152601360248201527250726f706f73616c206e6f742061637469766560681b6044820152606401610589565b600082815260086020908152604080832033845260090190915290205460ff161561064e5760405162461bcd60e51b815260206004820152600d60248201526c105b1c9958591e481d9bdd1959609a1b6044820152606401610589565b6000828152600860205260408082206002549151635da6a21b60e11b81523360048201529092916001600160a01b03169063bb4d443690602401602060405180830381865afa1580156106a5573d6000803e3d6000fd5b505050506040513d601f19601f820116820180604052508101906106c99190611479565b90506000811161070d5760405162461bcd60e51b815260206004820152600f60248201526e2737903b37ba34b733903837bbb2b960891b6044820152606401610589565b33600090815260098301602052604090208054841580156101000261ffff19909216919091176001908117835591909101829055610764578082600401600082825461075991906114df565b9091555061077e9050565b8082600501600082825461077891906114df565b90915550505b60408051841515815260208101839052859133917f877856338e13f63d0c36822ff0ef736b80934cd90574a3a5bc9262c39d217c46910160405180910390a350505050565b6002546040516370a0823160e01b815233600482015260009182916001600160a01b03909116906370a0823190602401602060405180830381865afa158015610810573d6000803e3d6000fd5b505050506040513d601f19601f820116820180604052508101906108349190611479565b116108515760405162461bcd60e51b815260040161058990611492565b600654600254604051635da6a21b60e11b81523360048201526001600160a01b039091169063bb4d443690602401602060405180830381865afa15801561089c573d6000803e3d6000fd5b505050506040513d601f19601f820116820180604052508101906108c09190611479565b101561091a5760405162461bcd60e51b8152602060048201526024808201527f496e73756666696369656e7420766f74696e6720706f77657220746f2070726f604482015263706f736560e01b6064820152608401610589565b33600090815260096020526040902054158061095f575060053360009081526009602052604090205461094c90610b2e565b600581111561095d5761095d611363565b145b80610993575060023360009081526009602052604090205461098090610b2e565b600581111561099157610991611363565b145b806109c757506003336000908152600960205260409020546109b490610b2e565b60058111156109c5576109c5611363565b145b610a135760405162461bcd60e51b815260206004820181905260248201527f4f6e65206163746976652070726f706f73616c207065722070726f706f7365726044820152606401610589565b600060045442610a2391906114df565b9050600060055482610a3591906114df565b600380549192506000610a47836114f2565b909155505060035460008181526008602052604090209081556001810180546001600160a01b0319163317905560028101610a82878261155a565b5060038101610a91868261155a565b50600681018390556007810182905560088101805461ffff191690556003543360008181526009602052604090819020839055519091907ffaa337366f7965edea73e5dda4e27a18008218bee177df73f82fc597a1f4dd0890610afb908a908a908990899061161a565b60405180910390a360035493505050505b92915050565b610b1a611061565b600493909355600591909155600655600755565b6000816003541015610b785760405162461bcd60e51b8152602060048201526013602482015272125b9d985b1a59081c1c9bdc1bdcd85b081251606a1b6044820152606401610589565b600082815260086020819052604090912090810154610100900460ff1615610ba35750600292915050565b80600601544211610bb75750600092915050565b80600701544211610bcb5750600192915050565b80600501548160040154111580610be757506007548160040154105b15610bf55750600392915050565b600881015460ff1615610c0b5750600592915050565b50600492915050565b600081815260086020526040902060018101546001600160a01b0316331480610c4757506000546001600160a01b031633145b610c9d5760405162461bcd60e51b815260206004820152602160248201527f4f6e6c792070726f706f736572206f72206f776e65722063616e2063616e63656044820152601b60fa1b6064820152608401610589565b6000610ca883610b2e565b6005811115610cb957610cb9611363565b14610cfd5760405162461bcd60e51b815260206004820152601460248201527350726f706f73616c206e6f742070656e64696e6760601b6044820152606401610589565b60088101805461ff00191661010017905560405182907f789cf55be980739dad1d0699b93b58e806b51c9d96619bfa8fe0a28abaa7b30c90600090a25050565b610d45611061565b610d4f600061108e565b565b60008181526008602081905260408220600181015460048201546005830154600684015460078501549585015460028601805460609889988b988998899889988998899895976001600160a01b03909516966003890195909160ff8082169261010090920416908890610dc39061143f565b80601f0160208091040260200160405190810160405280929190818152602001828054610def9061143f565b8015610e3c5780601f10610e1157610100808354040283529160200191610e3c565b820191906000526020600020905b815481529060010190602001808311610e1f57829003601f168201915b50505050509750868054610e4f9061143f565b80601f0160208091040260200160405190810160405280929190818152602001828054610e7b9061143f565b8015610ec85780601f10610e9d57610100808354040283529160200191610ec8565b820191906000526020600020905b815481529060010190602001808311610eab57829003601f168201915b50505050509650995099509950995099509950995099509950509193959799909294969850565b610ef7611061565b6001600160a01b038116610f2157604051631e4fbdf760e01b815260006004820152602401610589565b610f2a8161108e565b50565b6002546040516370a0823160e01b81523360048201526000916001600160a01b0316906370a0823190602401602060405180830381865afa158015610f76573d6000803e3d6000fd5b505050506040513d601f19601f82011682018060405250810190610f9a9190611479565b11610fb75760405162461bcd60e51b815260040161058990611492565b6004610fc282610b2e565b6005811115610fd357610fd3611363565b146110195760405162461bcd60e51b8152602060048201526016602482015275141c9bdc1bdcd85b081b9bdd081cdd58d8d95959195960521b6044820152606401610589565b6000818152600860208190526040808320909101805460ff191660011790555182917f712ae1383f79ac853f8d882153778e0260ef8f03b504e2866e0593e04d2b291f91a250565b6000546001600160a01b03163314610d4f5760405163118cdaa760e01b8152336004820152602401610589565b600080546001600160a01b038381166001600160a01b0319831681178455604051919092169283917f8be0079c531659141344cd1fd0a4f28419497f9722a3daafe3b4186f6b6457e09190a35050565b6000602082840312156110f057600080fd5b5035919050565b6000815180845260005b8181101561111d57602081850181015186830182015201611101565b506000602082860101526020601f19601f83011685010191505092915050565b8a81526001600160a01b038a166020820152610140604082018190526000906111688382018c6110f7565b9050828103606084015261117c818b6110f7565b6080840199909952505060a081019590955260c085019390935260e08401919091521515610100830152151561012090910152949350505050565b600080604083850312156111ca57600080fd5b82359150602083013580151581146111e157600080fd5b809150509250929050565b80356001600160a01b038116811461120357600080fd5b919050565b60006020828403121561121a57600080fd5b611223826111ec565b9392505050565b634e487b7160e01b600052604160045260246000fd5b600082601f83011261125157600080fd5b813567ffffffffffffffff8082111561126c5761126c61122a565b604051601f8301601f19908116603f011681019082821181831017156112945761129461122a565b816040528381528660208588010111156112ad57600080fd5b836020870160208301376000602085830101528094505050505092915050565b600080604083850312156112e057600080fd5b823567ffffffffffffffff808211156112f857600080fd5b61130486838701611240565b9350602085013591508082111561131a57600080fd5b5061132785828601611240565b9150509250929050565b6000806000806080858703121561134757600080fd5b5050823594602084013594506040840135936060013592509050565b634e487b7160e01b600052602160045260246000fd5b602081016006831061139b57634e487b7160e01b600052602160045260246000fd5b91905290565b600080604083850312156113b457600080fd5b823591506113c4602084016111ec565b90509250929050565b6001600160a01b038a168152610120602082018190526000906113f28382018c6110f7565b90508281036040840152611406818b6110f7565b60608401999099525050608081019590955260a085019390935260c0840191909152151560e08301521515610100909101529392505050565b600181811c9082168061145357607f821691505b60208210810361147357634e487b7160e01b600052602260045260246000fd5b50919050565b60006020828403121561148b57600080fd5b5051919050565b6020808252601c908201527f4d75737420686f6c6420746f6b656e7320746f20696e74657261637400000000604082015260600190565b634e487b7160e01b600052601160045260246000fd5b80820180821115610b0c57610b0c6114c9565b600060018201611504576115046114c9565b5060010190565b601f82111561155557600081815260208120601f850160051c810160208610156115325750805b601f850160051c820191505b818110156115515782815560010161153e565b5050505b505050565b815167ffffffffffffffff8111156115745761157461122a565b61158881611582845461143f565b8461150b565b602080601f8311600181146115bd57600084156115a55750858301515b600019600386901b1c1916600185901b178555611551565b600085815260208120601f198616915b828110156115ec578886015182559484019460019091019084016115cd565b508582101561160a5787850151600019600388901b60f8161c191681555b5050505050600190811b01905550565b60808152600061162d60808301876110f7565b828103602084015261163f81876110f7565b60408401959095525050606001529291505056fea2646970667358221220f35a6d0836f93fb347016dd83acf7ab093c49ede05807c04d8af33736d044dbc64736f6c63430008140033",
  "linkReferences": {},
  "deployedLinkReferences": {}
}