{
  "_format": "hh-sol-artifact-1",
  "contractName": "DAOTreasury",
  "sourceName": "contracts/DAOTreasury.sol",
  "abi": [
    {
      "inputs": [
        {
          "internalType": "address",
          "name": "_ballotDAO",
          "type": "address"
        },
        {
          "internalType": "address",
          "name": "_ballotToken",
          "type": "address"
        },
        {
          "internalType": "address",
          "name": "initialOwner",
          "type": "address"
        }
      ],
      "stateMutability": "nonpayable",
      "type": "constructor"
    },
    {
      "inputs": [
        {
          "internalType": "address",
          "name": "owner",
          "type": "address"
        }
      ],
      "name": "OwnableInvalidOwner",
      "type": "error"
    },
    {
      "inputs": [
        {
          "internalType": "address",
          "name": "account",
          "type": "address"
        }
      ],
      "name": "OwnableUnauthorizedAccount",
      "type": "error"
    },
    {
      "inputs": [],
      "name": "ReentrancyGuardReentrantCall",
      "type": "error"
    },
    {
      "inputs": [
        {
          "internalType": "address",
          "name": "token",
          "type": "address"
        }
      ],
      "name": "SafeERC20FailedOperation",
      "type": "error"
    },
    {
      "anonymous": false,
      "inputs": [
        {
          "indexed": true,
          "internalType": "address",
          "name": "sender",
          "type": "address"
        },
        {
          "indexed": false,
          "internalType": "uint256",
          "name": "amount",
          "type": "uint256"
        }
      ],
      "name": "FundsReceived",
      "type": "event"
    },
    {
      "anonymous": false,
      "inputs": [
        {
          "indexed": true,
          "internalType": "address",
          "name": "recipient",
          "type": "address"
        },
        {
          "indexed": false,
          "internalType": "uint256",
          "name": "amount",
          "type": "uint256"
        }
      ],
      "name": "FundsWithdrawn",
      "type": "event"
    },
    {
      "anonymous": false,
      "inputs": [
        {
          "indexed": true,
          "internalType": "address",
          "name": "previousOwner",
          "type": "address"
        },
        {
          "indexed": true,
          "internalType": "address",
          "name": "newOwner",
          "type": "address"
        }
      ],
      "name": "OwnershipTransferred",
      "type": "event"
    },
    {
      "anonymous": false,
      "inputs": [
        {
          "indexed": true,
          "internalType": "uint256",
          "name": "transactionId",
          "type": "uint256"
        },
        {
          "indexed": true,
          "internalType": "address",
          "name": "target",
          "type": "address"
        },
        {
          "indexed": false,
          "internalType": "uint256",
          "name": "value",
          "type": "uint256"
        },
        {
          "indexed": false,
          "internalType": "string",
          "name": "description",
          "type": "string"
        },
        {
          "indexed": false,
          "internalType": "uint256",
          "name": "proposalId",
          "type": "uint256"
        }
      ],
      "name": "TransactionCreated",
      "type": "event"
    },
    {
      "anonymous": false,
      "inputs": [
        {
          "indexed": true,
          "internalType": "uint256",
          "name": "transactionId",
          "type": "uint256"
        },
        {
          "indexed": true,
          "internalType": "address",
          "name": "target",
          "type": "address"
        },
        {
          "indexed": false,
          "internalType": "uint256",
          "name": "value",
          "type": "uint256"
        },
        {
          "indexed": false,
          "internalType": "bytes",
          "name": "data",
          "type": "bytes"
        }
      ],
      "name": "TransactionExecuted",
      "type": "event"
    },
    {
      "inputs": [],
      "name": "ballotDAO",
      "outputs": [
        {
          "internalType": "contract BallotDAO",
          "name": "",
          "type": "address"
        }
      ],
      "stateMutability": "view",
      "type": "function"
    },
    {
      "inputs": [],
      "name": "ballotToken",
      "outputs": [
        {
          "internalType": "contract BallotToken",
          "name": "",
          "type": "address"
        }
      ],
      "stateMutability": "view",
      "type": "function"
    },
    {
      "inputs": [
        {
          "internalType": "address",
          "name": "target",
          "type": "address"
        },
        {
          "internalType": "uint256",
          "name": "value",
          "type": "uint256"
        },
        {
          "internalType": "bytes",
          "name": "data",
          "type": "bytes"
        },
        {
          "internalType": "string",
          "name": "description",
          "type": "string"
        },
        {
          "internalType": "uint256",
          "name": "proposalId",
          "type": "uint256"
        }
      ],
      "name": "createTransaction",
      "outputs": [
        {
          "internalType": "uint256",
          "name": "",
          "type": "uint256"
        }
      ],
      "stateMutability": "nonpayable",
      "type": "function"
    },
    {
      "inputs": [
        {
          "internalType": "uint256",
          "name": "transactionId",
          "type": "uint256"
        }
      ],
      "name": "executeTransaction",
      "outputs": [],
      "stateMutability": "nonpayable",
      "type": "function"
    },
    {
      "inputs": [
        {
          "internalType": "uint256",
          "name": "",
          "type": "uint256"
        }
      ],
      "name": "executedProposals",
      "outputs": [
        {
          "internalType": "bool",
          "name": "",
          "type": "bool"
        }
      ],
      "stateMutability": "view",
      "type": "function"
    },
    {
      "inputs": [],
      "name": "getBalance",
      "outputs": [
        {
          "internalType": "uint256",
          "name": "",
          "type": "uint256"
        }
      ],
      "stateMutability": "view",
      "type": "function"
    },
    {
      "inputs": [
        {
          "internalType": "address",
          "name": "token",
          "type": "address"
        }
      ],
      "name": "getTokenBalance",
      "outputs": [
        {
          "internalType": "uint256",
          "name": "",
          "type": "uint256"
        }
      ],
      "stateMutability": "view",
      "type": "function"
    },
    {
      "inputs": [
        {
          "internalType": "uint256",
          "name": "transactionId",
          "type": "uint256"
        }
      ],
      "name": "getTransaction",
      "outputs": [
        {
          "internalType": "address",
          "name": "target",
          "type": "address"
        },
        {
          "internalType": "uint256",
          "name": "value",
          "type": "uint256"
        },
        {
          "internalType": "bytes",
          "name": "data",
          "type": "bytes"
        },
        {
          "internalType": "string",
          "name": "description",
          "type": "string"
        },
        {
          "internalType": "bool",
          "name": "executed",
          "type": "bool"
        },
        {
          "internalType": "uint256",
          "name": "proposalId",
          "type": "uint256"
        }
      ],
      "stateMutability": "view",
      "type": "function"
    },
    {
      "inputs": [],
      "name": "owner",
      "outputs": [
        {
          "internalType": "address",
          "name": "",
          "type": "address"
        }
      ],
      "stateMutability": "view",
      "type": "function"
    },
    {
      "inputs": [],
      "name": "renounceOwnership",
      "outputs": [],
      "stateMutability": "nonpayable",
      "type": "function"
    },
    {
      "inputs": [],
      "name": "transactionCount",
      "outputs": [
        {
          "internalType": "uint256",
          "name": "",
          "type": "uint256"
        }
      ],
      "stateMutability": "view",
      "type": "function"
    },
    {
      "inputs": [
        {
          "internalType": "uint256",
          "name": "",
          "type": "uint256"
        }
      ],
      "name": "transactions",
      "outputs": [
        {
          "internalType": "uint256",
          "name": "id",
          "type": "uint256"
        },
        {
          "internalType": "address",
          "name": "target",
          "type": "address"
        },
        {
          "internalType": "uint256",
          "name": "value",
          "type": "uint256"
        },
        {
          "internalType": "bytes",
          "name": "data",
          "type": "bytes"
        },
        {
          "internalType": "string",
          "name": "description",
          "type": "string"
        },
        {
          "internalType": "bool",
          "name": "executed",
          "type": "bool"
        },
        {
          "internalType": "uint256",
          "name": "proposalId",
          "type": "uint256"
        }
      ],
      "stateMutability": "view",
      "type": "function"
    },
    {
      "inputs": [
        {
          "internalType": "address",
          "name": "newOwner",
          "type": "address"
        }
      ],
      "name": "transferOwnership",
      "outputs": [],
      "stateMutability": "nonpayable",
      "type": "function"
    },
    {
      "inputs": [
        {
          "internalType": "address",
          "name": "_ballotDAO",
          "type": "address"
        }
      ],
      "name": "updateDAO",
      "outputs": [],
      "stateMutability": "nonpayable",
      "type": "function"
    },
    {
      "inputs": [
        {
          "internalType": "address",
          "name": "token",
          "type": "address"
        },
        {
          "internalType": "address",
          "name": "recipient",
          "type": "address"
        },
        {
          "internalType": "uint256",
          "name": "amount",
          "type": "uint256"
        }
      ],
      "name": "withdrawERC20",
      "outputs": [],
      "stateMutability": "nonpayable",
      "type": "function"
    },
    {
      "inputs": [
        {
          "internalType": "address",
          "name": "recipient",
          "type": "address"
        },
        {
          "internalType": "uint256",
          "name": "amount",
          "type": "uint256"
        }
      ],
      "name": "withdrawETH",
      "outputs": [],
      "stateMutability": "nonpayable",
      "type": "function"
    },
    {
      "stateMutability": "payable",
      "type": "receive"
    }
  ],
  "bytecode": "0x60806040523480156200001157600080fd5b50604051620016c0380380620016c0833981016040819052620000349162000114565b806001600160a01b0381166200006457604051631e4fbdf760e01b81526000600482015260240160405180910390fd5b6200006f81620000a7565b505060018055600280546001600160a01b039384166001600160a01b031991821617909155600380549290931691161790556200015e565b600080546001600160a01b038381166001600160a01b0319831681178455604051919092169283917f8be0079c531659141344cd1fd0a4f28419497f9722a3daafe3b4186f6b6457e09190a35050565b80516001600160a01b03811681146200010f57600080fd5b919050565b6000806000606084860312156200012a57600080fd5b6200013584620000f7565b92506200014560208501620000f7565b91506200015560408501620000f7565b90509250925092565b611552806200016e6000396000f3fe6080604052600436106100f75760003560e01c80637bec8a6f1161008a578063b77bf60011610059578063b77bf6001461030c578063bcb6c0b514610322578063ee22610b14610342578063f2fde38b1461036257600080fd5b80637bec8a6f1461027b5780638da5cb5b1461029b5780639ace38c2146102b9578063aa1779c3146102ec57600080fd5b80633b60288a116100c65780633b60288a146101e457806344004cc1146102245780634782f77914610246578063715018a61461026657600080fd5b80630bdb3ccb1461013857806312065fe01461017557806333ea3dc8146101925780633aecd0e3146101c457600080fd5b366101335760405134815233907f8e47b87b0ef542cdfa1659c551d88bad38aa7f452d2bbb349ab7530dfec8be8f9060200160405180910390a2005b600080fd5b34801561014457600080fd5b50600254610158906001600160a01b031681565b6040516001600160a01b0390911681526020015b60405180910390f35b34801561018157600080fd5b50475b60405190815260200161016c565b34801561019e57600080fd5b506101b26101ad366004610f7d565b610382565b60405161016c96959493929190610fdc565b3480156101d057600080fd5b506101846101df366004611047565b6104fe565b3480156101f057600080fd5b506102146101ff366004610f7d565b60066020526000908152604090205460ff1681565b604051901515815260200161016c565b34801561023057600080fd5b5061024461023f366004611069565b61056f565b005b34801561025257600080fd5b506102446102613660046110a5565b610678565b34801561027257600080fd5b506102446107ed565b34801561028757600080fd5b50600354610158906001600160a01b031681565b3480156102a757600080fd5b506000546001600160a01b0316610158565b3480156102c557600080fd5b506102d96102d4366004610f7d565b610801565b60405161016c97969594939291906110cf565b3480156102f857600080fd5b506101846103073660046111b1565b61095c565b34801561031857600080fd5b5061018460045481565b34801561032e57600080fd5b5061024461033d366004611047565b610b5d565b34801561034e57600080fd5b5061024461035d366004610f7d565b610bd3565b34801561036e57600080fd5b5061024461037d366004611047565b610dcd565b6000818152600560208190526040822060018101546002820154928201546006830154600384018054879660609687968996879692956001600160a01b03909216949192600487019260ff9092169184906103dc90611262565b80601f016020809104026020016040519081016040528092919081815260200182805461040890611262565b80156104555780601f1061042a57610100808354040283529160200191610455565b820191906000526020600020905b81548152906001019060200180831161043857829003601f168201915b5050505050935082805461046890611262565b80601f016020809104026020016040519081016040528092919081815260200182805461049490611262565b80156104e15780601f106104b6576101008083540402835291602001916104e1565b820191906000526020600020905b8154815290600101906020018083116104c457829003601f168201915b505050505092509650965096509650965096505091939550919395565b6040516370a0823160e01b81523060048201526000906001600160a01b038316906370a0823190602401602060405180830381865afa158015610545573d6000803e3d6000fd5b505050506040513d601f19601f82011682018060405250810190610569919061129c565b92915050565b610577610e08565b6001600160a01b0383166105ca5760405162461bcd60e51b8152602060048201526015602482015274496e76616c696420746f6b656e206164647265737360581b60448201526064015b60405180910390fd5b6001600160a01b03821661061c5760405162461bcd60e51b8152602060048201526019602482015278496e76616c696420726563697069656e74206164647265737360381b60448201526064016105c1565b6106306001600160a01b0384168383610e35565b816001600160a01b03167feaff4b37086828766ad3268786972c0cd24259d4c87a80f9d3963a3c3d999b0d8260405161066b91815260200190565b60405180910390a2505050565b610680610e08565b6001600160a01b0382166106d25760405162461bcd60e51b8152602060048201526019602482015278496e76616c696420726563697069656e74206164647265737360381b60448201526064016105c1565b478111156107195760405162461bcd60e51b8152602060048201526014602482015273496e73756666696369656e742062616c616e636560601b60448201526064016105c1565b6000826001600160a01b03168260405160006040518083038185875af1925050503d8060008114610766576040519150601f19603f3d011682016040523d82523d6000602084013e61076b565b606091505b50509050806107b25760405162461bcd60e51b8152602060048201526013602482015272115512081d1c985b9cd9995c8819985a5b1959606a1b60448201526064016105c1565b826001600160a01b03167feaff4b37086828766ad3268786972c0cd24259d4c87a80f9d3963a3c3d999b0d8360405161066b91815260200190565b6107f5610e08565b6107ff6000610e8c565b565b600560205260009081526040902080546001820154600283015460038401805493946001600160a01b039093169391929161083b90611262565b80601f016020809104026020016040519081016040528092919081815260200182805461086790611262565b80156108b45780601f10610889576101008083540402835291602001916108b4565b820191906000526020600020905b81548152906001019060200180831161089757829003601f168201915b5050505050908060040180546108c990611262565b80601f01602080910402602001604051908101604052809291908181526020018280546108f590611262565b80156109425780601f1061091757610100808354040283529160200191610942565b820191906000526020600020905b81548152906001019060200180831161092557829003601f168201915b505050506005830154600690930154919260ff1691905087565b6002546000906001600160a01b031633146109b95760405162461bcd60e51b815260206004820152601f60248201527f4f6e6c792044414f2063616e2063616c6c20746869732066756e6374696f6e0060448201526064016105c1565b6001600160a01b038616610a085760405162461bcd60e51b8152602060048201526016602482015275496e76616c696420746172676574206164647265737360501b60448201526064016105c1565b60008281526006602052604090205460ff1615610a675760405162461bcd60e51b815260206004820152601960248201527f50726f706f73616c20616c72656164792065786563757465640000000000000060448201526064016105c1565b60048054906000610a77836112b5565b909155505060045460008181526005602052604090209081556001810180546001600160a01b0319166001600160a01b0389161790556002810186905560038101610ac2868261132a565b5060048101610ad1858261132a565b5060058101805460ff1990811690915560068083018590556000858152602091909152604090819020805490921660011790915560045490516001600160a01b03891691907faa61dacfccf8ed6f2c328a11bb9e9d54a44524e5a6dcd46489ba1f86b84457bf90610b47908a90899089906113ea565b60405180910390a3505060045495945050505050565b610b65610e08565b6001600160a01b038116610bb15760405162461bcd60e51b8152602060048201526013602482015272496e76616c69642044414f206164647265737360681b60448201526064016105c1565b600280546001600160a01b0319166001600160a01b0392909216919091179055565b6002546001600160a01b03163314610c2d5760405162461bcd60e51b815260206004820152601f60248201527f4f6e6c792044414f2063616e2063616c6c20746869732066756e6374696f6e0060448201526064016105c1565b610c35610edc565b60008181526005602081905260409091209081015460ff1615610c9a5760405162461bcd60e51b815260206004820152601c60248201527f5472616e73616374696f6e20616c72656164792065786563757465640000000060448201526064016105c1565b60058101805460ff19166001908117909155810154600282015460405160009283926001600160a01b0390911691610cd6906003870190611413565b60006040518083038185875af1925050503d8060008114610d13576040519150601f19603f3d011682016040523d82523d6000602084013e610d18565b606091505b509150915081610d6a5760405162461bcd60e51b815260206004820152601c60248201527f5472616e73616374696f6e20657865637574696f6e206661696c65640000000060448201526064016105c1565b600183015460028401546040516001600160a01b039092169186917f45c6e1a61292af28e0360dcf7b4c16a9143c6a4e968a38ecd0fd26cac72e06ca91610db691906003890190611489565b60405180910390a3505050610dca60018055565b50565b610dd5610e08565b6001600160a01b038116610dff57604051631e4fbdf760e01b8152600060048201526024016105c1565b610dca81610e8c565b6000546001600160a01b031633146107ff5760405163118cdaa760e01b81523360048201526024016105c1565b604080516001600160a01b038416602482015260448082018490528251808303909101815260649091019091526020810180516001600160e01b031663a9059cbb60e01b179052610e87908490610f06565b505050565b600080546001600160a01b038381166001600160a01b0319831681178455604051919092169283917f8be0079c531659141344cd1fd0a4f28419497f9722a3daafe3b4186f6b6457e09190a35050565b600260015403610eff57604051633ee5aeb560e01b815260040160405180910390fd5b6002600155565b600080602060008451602086016000885af180610f29576040513d6000823e3d81fd5b50506000513d91508115610f41578060011415610f4e565b6001600160a01b0384163b155b15610f7757604051635274afe760e01b81526001600160a01b03851660048201526024016105c1565b50505050565b600060208284031215610f8f57600080fd5b5035919050565b6000815180845260005b81811015610fbc57602081850181015186830182015201610fa0565b506000602082860101526020601f19601f83011685010191505092915050565b60018060a01b038716815285602082015260c06040820152600061100360c0830187610f96565b82810360608401526110158187610f96565b9415156080840152505060a00152949350505050565b80356001600160a01b038116811461104257600080fd5b919050565b60006020828403121561105957600080fd5b6110628261102b565b9392505050565b60008060006060848603121561107e57600080fd5b6110878461102b565b92506110956020850161102b565b9150604084013590509250925092565b600080604083850312156110b857600080fd5b6110c18361102b565b946020939093013593505050565b87815260018060a01b038716602082015285604082015260e0606082015260006110fc60e0830187610f96565b828103608084015261110e8187610f96565b94151560a0840152505060c0015295945050505050565b634e487b7160e01b600052604160045260246000fd5b600067ffffffffffffffff8084111561115657611156611125565b604051601f8501601f19908116603f0116810190828211818310171561117e5761117e611125565b8160405280935085815286868601111561119757600080fd5b858560208301376000602087830101525050509392505050565b600080600080600060a086880312156111c957600080fd5b6111d28661102b565b945060208601359350604086013567ffffffffffffffff808211156111f657600080fd5b818801915088601f83011261120a57600080fd5b6112198983356020850161113b565b9450606088013591508082111561122f57600080fd5b508601601f8101881361124157600080fd5b6112508882356020840161113b565b95989497509295608001359392505050565b600181811c9082168061127657607f821691505b60208210810361129657634e487b7160e01b600052602260045260246000fd5b50919050565b6000602082840312156112ae57600080fd5b5051919050565b6000600182016112d557634e487b7160e01b600052601160045260246000fd5b5060010190565b601f821115610e8757600081815260208120601f850160051c810160208610156113035750805b601f850160051c820191505b818110156113225782815560010161130f565b505050505050565b815167ffffffffffffffff81111561134457611344611125565b611358816113528454611262565b846112dc565b602080601f83116001811461138d57600084156113755750858301515b600019600386901b1c1916600185901b178555611322565b600085815260208120601f198616915b828110156113bc5788860151825594840194600190910190840161139d565b50858210156113da5787850151600019600388901b60f8161c191681555b5050505050600190811b01905550565b8381526060602082015260006114036060830185610f96565b9050826040830152949350505050565b600080835461142181611262565b60018281168015611439576001811461144e5761147d565b60ff198416875282151583028701945061147d565b8760005260208060002060005b858110156114745781548a82015290840190820161145b565b50505082870194505b50929695505050505050565b82815260006020604081840152600084546114a381611262565b80604087015260606001808416600081146114c557600181146114df5761150d565b60ff1985168984015283151560051b89018301955061150d565b896000528660002060005b858110156115055781548b82018601529083019088016114ea565b8a0184019650505b5093999850505050505050505056fea2646970667358221220f2974b5aa037d204915698e89b8f880cdd4de703961727ddf8ebb233c41caa5f64736f6c63430008140033",
  "linkReferences": {},
  "deployedLinkReferences": {}
}